:020000040800F2
:100000002009002001050008050300080703000877
:100010000B0300080F030008130300080000000092
:1000200000000000000000000000000017030008AE
:1000300019030008000000001B0300081D0300084E
:100040001B0500081B0500081B0500081B05000810
:100050001B0500081B0500081B0500081B05000800
:100060001B0500081B0500081B0500081B050008F0
:100070001B0500081B0500081B0500081B050008E0
:100080001B0500081B0500081B0500081B050008D0
:100090001B0500081B0500081B0500081B050008C0
:1000A0001B0500081B0500081B0500081B050008B0
:1000B0001B0500081B050008E12600081B050008B9
:1000C0001B0500081B0500081B0500081B05000890
:1000D0001B0500081B2500081B0500081B05000860
:1000E0001B0500081B0500081B0500081B05000870
:1000F0001B0500081B0500081B0500081B05000860
:100100001B0500081B050008972900081B050008AF
:100110001B0500081B0500085B3600081B050008CE
:100120001B0500081B0500081B0500081B0500082F
:1001300000F002F800F06BF80AA090E8000C82448E
:100140008344AAF10107DA4501D100F060F8AFF26B
:10015000090EBAE80F0013F0010F18BFFB1A43F0A5
:1001600001031847C4530000E45300000A444FF051
:10017000000C10F8013B13F0070408BF10F8014B06
:100180001D1108BF10F8015B641E05D010F8016B4B
:10019000641E01F8016BF9D113F0080F1EBF10F8AF
:1001A000014BAD1C0C1B09D16D1E58BF01F801CBD2
:1001B000FAD505E014F8016B01F8016B6D1EF9D555
:1001C0009142D6D37047000000230024002500266A
:1001D000103A28BF78C1FBD8520728BF30C148BFAA
:1001E0000B607047642904F00D80752904F00A80C3
:1001F000782904F04380632904F09781732904F07F
:100200009C81002070471FB51FBD10B510BD04F0C4
:10021000C7F91146FFF7F7FF00F008F804F0E5F919
:1002200003B4FFF7F2FF03BC02F01CF902F0B0F8D0
:100230004FF4165002F025F92A48416848208847B3
:1002400002F060FA002141F61F4002F081FE02F048
:100250005EFB41F61F41312002F070FB02F0F3F922
:100260000021084602F09CFD0021084602F0A6FD90
:1002700002F0D6FC35E0012002F012FD0446062C07
:1002800019D2DFE804F01803080C101416480068AF
:10029000164908600FE00120154908600BE00120B5
:1002A0001449086007E001201349086003E00120B9
:1002B0001249086000BF00BF0D480068012801D145
:1002C0000F4908600D48006801280AD1002009493B
:1002D0000860094908600A4908600549086007493B
:1002E0000860C8E7040100204000002098000020BA
:1002F00000000020780000207C0000200800002082
:1003000004000020704700BFFEE700BFFEE700BF0B
:10031000FEE700BFFEE77047704770477047000078
:100320000CB50020019000906C48006840F48030CB
:100330006A49086000BF6948006800F40030009016
:100340000198401C0190009818B90198B0F5A06F71
:10035000F1D16248006800F4003010B10120009033
:1003600001E0002000900098012843D15C4800681B
:1003700040F010005A4908600846006820F0030069
:1003800008600846006840F0020008605348406872
:10039000524948600846406848600846406840F452
:1003A000806048600846406820F47C104860084639
:1003B000406840F4E81048600846006840F08070EB
:1003C000086000BF4548006800F000700028F9D0C0
:1003D0004248406820F003004049486008464068B1
:1003E00040F00200486000BF3C48406800F00C004C
:1003F0000828F9D10CBD10B5FFF792FF10BD10B55C
:100400003648006840F001003449086008464068FA
:10041000344908403149486008460068324908407C
:100420002E4908600846006820F4802008600846CD
:10043000406820F4FE0048604FF41F008860FFF71A
:10044000DAFF4FF000602949086010BD10B50021A7
:1004500000200022214B5B6803F00C0121B104292C
:1004600006D0082928D107E0214B224C236027E041
:100470001F4B204C236023E0184B5B6803F4701083
:10048000164B5B6803F48032022303EB904022B9E1
:10049000194B4343174C23600DE0104B5B6803F48A
:1004A000003323B1144B4343124C236003E0104B41
:1004B0004343104C236003E00D4B0E4C236000BF00
:1004C00000BF064B5B68C3F303130C4CE15C094BA4
:1004D0001B68CB40074C236010BD00000010024099
:1004E000002002400000FFF8FFFFF6FE08ED00E0EC
:1004F00000127A000C00002000093D0010000020CE
:100500000948804709480047FEE7FEE7FEE7FEE7A7
:10051000FEE7FEE7FEE7FEE7FEE7FEE704480549E3
:10052000054A064B70470000FF0300083101000830
:1005300020030020200900202005002020050020A5
:1005400031490143314A1160704770B500210023E1
:100550000F22C47804B32D4C246804F4E064C4F57D
:10056000E064210AC1F10403CA40447804FA03F1AB
:100570008478144021430901254C0678A15504785C
:1005800004F01F050124AC4005786D11AD0005F1A4
:10059000E025C5F8004109E0047804F01F050124B6
:1005A000AC401C4D0678761145F8264070BD1A4ABD
:1005B0000A400243154B1B1F1A60704739B1134A9A
:1005C000121D12680243114B1B1D1A6006E00F4AF0
:1005D000121D126882430D4B1B1D1A6070470428C0
:1005E00008D14FF0E021096941F004014FF0E02209
:1005F000116107E04FF0E021096921F004014FF09B
:10060000E0221161704700000000FA050CED00E0E7
:1006100000E400E080E100E080FFFF1F10B5044629
:10062000FA48844208D10121401500F055FD00210F
:10063000601500F051FD17E0F548844208D1012112
:10064000001500F049FD0021201500F045FD0BE0EC
:10065000F048844208D10121C80300F03DFD00218B
:100660004FF4004000F038FD10BD30B502460020C8
:1006700000235068E84C20400D790C6844EA0524BA
:10068000204350609068E54C2040D1E902542C434F
:100690004D7944EA450420439060D06A20F470000C
:1006A0000C7C641EE4B2234340EA0350D06230BDA8
:1006B00000210160017141718160C16001210174FB
:1006C000704721B1826842F00102826003E08268D3
:1006D00022F001028260704721B1826842F4807288
:1006E000826003E0826822F480728260704710B5F5
:1006F0000023CBB21AB144681C43446002E0446852
:100700009C43446010BD816841F0080181607047DE
:10071000014600208A6802F008020AB1012000E0C8
:1007200000207047816841F00401816070470146F4
:1007300000208A6802F004020AB1012000E00020D3
:10074000704721B1826842F4A002826003E08268AF
:1007500022F4A00282607047014600208A6802F4F9
:1007600080020AB1012000E00020704710B50A465F
:1007700000210023416821F46041531E41EA4331C6
:10078000416010BD21B1426842F40062426003E062
:10079000426822F4006242607047F0B504460D469C
:1007A00000200021092D11DDE068A5F10A0606EB05
:1007B0004607072606FA07F18843A5F10A0606EB65
:1007C000460603FA06F10843E0600CE0206905EBF9
:1007D0004507072606FA07F1884305EB450603FAA5
:1007E00006F108432061072A0FDA606B561E06EBFC
:1007F00086071F2606FA07F18843561E06EB860673
:1008000005FA06F10843606322E00D2A0FDA206B37
:10081000D61F06EB86071F2606FA07F18843D61F68
:1008200006EB860605FA06F10843206310E0E06A4D
:10083000A2F10D0606EB86071F2606FA07F188438C
:10084000A2F10D0606EB860605FA06F10843E06202
:10085000F0BD21B1826842F48012826003E08268B8
:1008600022F48012826070470146C86C80B27047E3
:1008700066484C300068704721B1426842F480629B
:10088000426003E0426822F480624260704721B116
:10089000426842F48052426003E0426822F480528F
:1008A000426070470A460021816821F4E04111430B
:1008B0008160704721B1826842F40042826003E0A7
:1008C000826822F400428260704721B1826842F45B
:1008D0000212826003E0826822F402128260704792
:1008E000014600208A6802F400120AB1012000E0EB
:1008F00000207047F0B5044615460020002200266F
:10090000092911DDE068A1F10A0707EB470C072769
:1009100007FA0CF29043A1F10A0707EB470703FA25
:1009200007F21043E0600CE0206901EB410C07275F
:1009300007FA0CF2904301EB410703FA07F2104368
:100940002061A06BC0F30156EF1C06F1010CA7EB70
:100950000C0707EB870C1F2707FA0CF29043EF1CDC
:1009600006F1010CA7EB0C0707EB870701FA07F26A
:100970001043A063F0BD10B50A4600210023816B2F
:1009800021F44011531E41EA0351816310BD08B5A3
:10099000002300930090009B0B440093009B1A607F
:1009A00008BD08B5024600200090009201F1280021
:1009B000009B184400900098006880B208BD0A4669
:1009C00000214168164B1940114341607047416254
:1009D000826270470A460021416821F01F011143DD
:1009E0004160704740B109490831096841F400018C
:1009F000064A0832116007E004490831096821F409
:100A00000001024A083211607047000000240140D2
:100A100000280140003C0140FFFEF0FFFDF7F1FF20
:100A2000FFFD3FFF0246002013680B400BB1012081
:100A300000E000207047CA430260704770B502466C
:100A40000020002300240B125568CEB205EA0604EC
:100A500015681D4015B10CB1012000E0002070BDEB
:100A600000220A12D34303607047000010B5044609
:100A7000CC48844208D10121042000F02DFB002144
:100A8000042000F029FB46E0C748844208D1012138
:100A9000082000F021FB0021082000F01DFB3AE0B7
:100AA000C248844208D10121102000F015FB00212A
:100AB000102000F011FB2EE0BD48844208D1012136
:100AC000202000F009FB0021202000F005FB22E09F
:100AD000B848844208D10121402000F0FDFA0021ED
:100AE000402000F0F9FA16E0B348844208D1012111
:100AF000802000F0F1FA0021802000F0EDFA0AE0F9
:100B0000AE48844207D10121801500F0E5FA0021AA
:100B1000A01500F0E1FA10BD10B50121084600F063
:100B2000DBFA0021012000F0D7FA10BD2DE9F041D9
:100B3000024600250026002000230024002791F80B
:100B400003C00CF00F0591F803C00CF0100CBCF1C1
:100B5000000F03D091F802C04CEA050591F800C0DF
:100B6000BCF1000F31D0146800202BE04FF0010CD5
:100B70000CFA00F3B1F800C00CEA03069E4220D143
:100B800083004FF00F0C0CFA03F7BC4305FA03FC8B
:100B90004CEA040491F803C0BCF1280F06D14FF0D1
:100BA000010C0CFA00FCC2F814C00AE091F803C072
:100BB000BCF1480F05D14FF0010C0CFA00FCC2F853
:100BC00010C0401C0828D1D31460B1F800C0BCF19B
:100BD000FF0F34DD546800202EE000F1080C4FF0C8
:100BE000010808FA0CF3B1F800C00CEA03069E42B3
:100BF00021D183004FF00F0C0CFA03F7BC4305FA28
:100C000003FC4CEA040491F803C0BCF1280F05D1A1
:100C100000F1080C08FA0CF8C2F8148091F803C02F
:100C2000BCF1480F07D100F1080C4FF0010808FA99
:100C30000CF8C2F81080401C0828CED35460BDE8E0
:100C4000F0814FF6FF710180022181700421C17093
:100C500070470246002093680B400BB1012000E072
:100C6000002070470146886880B270470246002025
:100C7000D3680B400BB1012000E000207047014613
:100C8000C86880B2704701617047416170470AB11E
:100C9000016100E041617047C16070474FF48032EC
:100CA0000A4382618161826182698269704702467A
:100CB0000020434B18684FF68073184040EA02103A
:100CC00008433F4B186070473E49C8617047F0B514
:100CD0000A46002300240021002500F00046B6F15A
:100CE000004F02D1364EF16901E0354E7168C0F314
:100CF000034583B200F44016B6F5401F08D121F039
:100D000070612F4E766826F070662D4F7E6012E07F
:100D100000F48016B6F5801F06D1032606FA05F406
:100D2000A14341F0706106E0460D360103FA06F674
:100D3000B14341F0706122B1460D360103FA06F667
:100D4000314300F00046B6F1004F02D11C4EF16174
:100D500001E01B4E7160F0BD30B500228B071C0F07
:100D60000F2303FA04F2164B08338C1053F8243087
:100D70009343134C08348D1044F8253023468C10CF
:100D800053F824308C07240F00FA04F423430C4C4E
:100D900008348D1044F8253030BD0A49DC31086034
:100DA0007047000000080140000C014000100140A5
:100DB0000014014000180140001C014000200140C7
:100DC0000000014000002042DF48006840F00100C0
:100DD000DD49086008464068DC490840DA49486057
:100DE00008460068DA490840D749086008460068A4
:100DF00020F4802008600846406820F4FE00486027
:100E00004FF41F0088607047CF49096821F4803192
:100E1000CD4A11601146096821F480211160B0F5B6
:100E2000803F03D0B0F5802F0ED106E0C649096897
:100E300041F48031C44A116007E0C349096841F4B4
:100E4000A021C14A116000E000BF00BF704710B58B
:100E500001460022002300204A11012A02D1BA4C87
:100E6000236806E0022A02D1B74C236A01E0B64C9F
:100E7000636A01F01F02012494401C400CB1012060
:100E800000E0002010BD38B50020009000240025AF
:100E900000BF3120FFF7DBFF05460098401C0090A3
:100EA0000098B0F5A06F01D0002DF2D03120FFF7EF
:100EB000CEFF08B1012400E00024204638BD0146E1
:100EC0000020A14A106820F0F80040EAC10010603C
:100ED0007047A04908607047024600209A4B586846
:100EE00020F47C1042EA01031843974B5860704786
:100EF00098490866704701460020934A506820F0E0
:100F000003000843506070478F48406800F00C00B1
:100F10007047014600208C4A506820F0F0000843DA
:100F20005060704701460020874A506820F4E06016
:100F300008435060704701460020834A506820F4FF
:100F4000605040EAC1005060704729B17E4A527A31
:100F500002437D4B5A7204E07B4A527A82437A4BB9
:100F60005A7270477B49D8310860704701460020AB
:100F7000754A506820F44040084350607047002193
:100F8000714A20321170704A82F82010012802D074
:100F900004280AD104E001216B4A2032117005E0D7
:100FA0000521694A2032117000E000BF00BF704780
:100FB0006949086070476449096A0143624A1162DD
:100FC0007047654944390860704730B500210022F8
:100FD000002400235C4D6D6805F00C0121B104294B
:100FE00005D0082923D105E05C4D056022E05B4D6A
:100FF00005601FE0544D6D6805F47012524D6D6828
:1010000005F48034022505EB92421CB9544D55433A
:1010100005600BE04C4D6D6805F400351DB1504D79
:101020005543056002E04D4D5543056002E04B4DD0
:10103000056000BF00BF444D6D6805F0F00109096F
:10104000484D6B5C0568DD4045603F4D6D6805F4BB
:10105000E061090A434D6B5C4568DD4085603A4DAF
:101060006D6805F46051C90A3E4D6B5C4568DD4012
:10107000C560354D6D6805F44041890B3A4D6B5C98
:10108000C568B5FBF3F5056130BD29B12E4A52693B
:1010900002432D4B5A6104E02B4A526982432A4B8A
:1010A0005A61704729B1284A92690243264B9A61D6
:1010B00004E0254A92698243234B9A61704729B123
:1010C000214AD2690243204BDA6104E01E4AD26908
:1010D00082431D4BDA61704729B11B4AD268024333
:1010E000194BDA6004E0184AD2688243164BDA6082
:1010F000704729B1144A12690243134B1A6104E084
:10110000114A12698243104B1A61704712494039E3
:10111000086070470F49C86470470B49C871704731
:101120000948406A40F080700749486270470146AC
:101130000020054A92680A400AB1012000E0002020
:101140007047014988727047001002400000FFF8A4
:10115000FFFFF6FE000042428004424200127A0085
:1011600000093D00200000203000002010B504469A
:10117000FE48844208D10121C014FFF7ADFF0021D1
:10118000E014FFF7A9FFC4E0B4F1804F08D10121BA
:101190000846FFF7AEFF00210120FFF7AAFFB8E0E5
:1011A000F348844208D101210220FFF7A2FF002169
:1011B0000220FFF79EFFACE0EE48844208D10121F7
:1011C0000420FFF796FF00210420FFF792FFA0E024
:1011D000E948844208D101210820FFF78AFF002155
:1011E0000820FFF786FF94E0E448844208D10121FB
:1011F0001020FFF77EFF00211020FFF77AFF88E024
:10120000DF48844208D101212020FFF772FF00212E
:101210002020FFF76EFF7CE0DA48844208D10121EC
:101220004014FFF759FF00216014FFF755FF70E0ED
:10123000D548844209D10121C804FFF74DFF0021A0
:101240004FF40020FFF748FF63E0D048844209D103
:1012500001210805FFF740FF00214FF48010FFF740
:101260003BFF56E0CA48844209D101214805FFF7F7
:1012700033FF00214FF40010FFF72EFF49E0C5486F
:10128000844208D101214020FFF733FF0021402094
:10129000FFF72FFF3DE0C048844208D101218020A4
:1012A000FFF727FF00218020FFF723FF31E0BB4835
:1012B000844208D101218015FFF71BFF0021A015F2
:1012C000FFF717FF25E0B648844209D10121080441
:1012D000FFF702FF00214FF48030FFF7FDFE18E01A
:1012E000B048844209D101214804FFF7F5FE0021EE
:1012F0004FF40030FFF7F0FE0BE0AB48844208D11A
:1013000001218804FFF7E8FE00214FF48020FFF759
:10131000E3FE10BD00220288944B98420ED0994BF8
:1013200098420BD0B0F1804F08D0914B984205D035
:10133000904B984202D0904B984204D14FF68F7355
:101340001A404B881A438D4B984207D08C4B9842D9
:1013500004D04FF6FF431A40CB881A4302808B8893
:1013600083850B880385814B98420BD0854B98422F
:1013700008D08B4B984205D08A4B984202D08A4BBA
:10138000984201D10B7A038601238382704770B59E
:10139000002400220023058C4FF6FE76354005849C
:1013A000028C8388048B4FF68F752C40B51E2C4021
:1013B0000D882C43751E2A400D892A434D882A43E7
:1013C0006A4DA8420BD06F4DA84208D0744DA84278
:1013D00005D0744DA84202D0734DA84213D14FF6E8
:1013E000F7752A404D892A434FF6FB752A408D88B0
:1013F0002A434FF6FF652B404FF6FF552B408D8952
:101400002B43CD892B4383800483CD88858602843A
:1014100070BD70B5002400220023058C4FF6EF76D6
:1014200035400584028C8388048B48F6FF752C4078
:101430004FF6FF452C400D884FF6FF7606EA05254E
:101440002C434FF6DF752A400D8906EA05152A431D
:101450004D8806EA05152A43444DA84202D0494D5D
:10146000A8421DD14FF67F752A404D894FF6FF7671
:1014700006EA05152A434FF6BF752A408D8806EA0D
:1014800005152A434FF6FF352B404FF2FF752B40D1
:101490008D8906EA85052B43CD8906EA85052B4310
:1014A00083800483CD880587028470BD70B50024D5
:1014B00000220023058C4FF6FF6635400584028C20
:1014C0008388848B4FF68F752C404FF6FC752C402B
:1014D0000D882C434FF6FF552A400D894FF6FF76B5
:1014E00006EA05252A434D8806EA05252A431F4DAD
:1014F000A84202D0234DA8421DD14FF2FF752A40C9
:101500004D894FF6FF7606EA05252A434FF6FF354B
:101510002A408D8806EA05252A434EF6FF752B40A2
:101520004DF6FF752B408D8906EA05152B43CD89B5
:1015300006EA05152B4383808483CD888587028442
:1015400070BD70B5002200230024058C4EF6FF7696
:1015500035400584038C8488828B48F6FF752A40C9
:101560004FF6FF452A400D8820E00000002C014086
:101570000004004000080040000C00400010004043
:101580000014004000340140004C01400050014074
:101590000054014000180040001C004000200040A2
:1015A0000040014000440140004801404FF6FF76F2
:1015B00006EA05252A434DF6FF752B400D8906EAFC
:1015C00005352B434D8806EA05352B43FA4DA842D5
:1015D00002D0FA4DA84208D14BF6FF752C408D89F8
:1015E0004FF6FF7606EA85152C4384808283CD88EA
:1015F000A0F84050038470BD828B4FF2FF331A4035
:101600008283828B4FF6FF7303EA01231A4382839E
:101610007047F0B50C461546002200210026078CC5
:101620004EF6FF7C07EA0C070784828B018C4FF68D
:10163000FF7707EA043640F6FF473A404FF6FF7758
:1016400007EA05273A434FF6FF7707EA03373A439D
:10165000D94FB8420ED0D94FB8420BD0B0F1804F1D
:1016600008D0D74FB84205D0D64FB84202D0D64F97
:10167000B84206D14DF6FF77394046F480573943DA
:1016800005E047F6FF57394044F4805739438283D9
:101690000184F0BD828B4FF6F3731A408283828BF4
:1016A0000A4382837047F0B50C461546002200219C
:1016B0000026078C4FF6FF6C07EA0C070784828B25
:1016C000018C4FF6FF7707EA04264FF60C773A4075
:1016D0004FF6FF7707EA03172F433A43B64FB84256
:1016E0000ED0B64FB8420BD0B0F1804F08D0B44FF7
:1016F000B84205D0B34FB84202D0B34FB84206D17A
:101700004FF6FF57394046F48077394305E04FF2F2
:10171000FF57394044F48077394382830184F0BD18
:10172000028B4FF2FF331A400283028B4FF6FF7396
:1017300003EA01231A4302837047F0B50C461546AD
:10174000002200210026078C4FF6EF7C07EA0C07E9
:101750000784028B018C4FF6FF7707EA041640F6E8
:10176000FF473A404FF6FF7707EA03373A434FF611
:10177000FF7707EA05273A438F4FB8420ED08F4FC5
:10178000B8420BD0B0F1804F08D08D4FB84205D091
:101790008C4FB84202D08C4FB84206D14FF6DF775B
:1017A000394046F01007394305E04FF65F7739407E
:1017B00044F01007394302830184F0BD028B4FF6D9
:1017C000F3731A400283028B0A4302837047F0B519
:1017D0000C46154600220021068C4FF6FE773E404F
:1017E0000684028B018C4FF60C7632407E1C06EA92
:1017F00003162E433243704EB0420ED06F4EB042AD
:101800000BD0B0F1804F08D06D4EB04205D06D4E78
:10181000B04202D06C4EB04206D14FF6FD76314058
:1018200044F00106314305E04FF6F576314044F0CF
:101830000106314302830184F0BD70B505460C46B4
:101840005D4885420ED05D4885420BD0B5F1804F92
:1018500008D05B48854205D05A48854202D05A4894
:10186000854200D100E000BF208850B92389A288BA
:1018700061882846FFF7ABFFE1882846FFF79EFF07
:1018800025E0208804280AD12389A2886188284677
:10189000FFF753FFE1882846FFF742FF17E0208853
:1018A00008280AD12389A28861882846FFF7FBFE11
:1018B000E1882846FFF7EEFE09E02389A2886188C7
:1018C0002846FFF7A6FEE1882846FFF795FE70BD83
:1018D0002DE9F04105460C4600260127608808B92D
:1018E000022600E00026A088012801D1022700E09E
:1018F00001272088A0B92389A28861882846FFF79C
:1019000066FFE1882846FFF759FF23893A463146AA
:101910002846FFF712FFE1882846FFF701FF13E092
:101920002389A28861882846FFF707FFE1882846B7
:10193000FFF7F6FE23893A4631462846FFF747FF70
:10194000E1882846FFF73AFFBDE8F0810A884B8816
:101950001A438B881A43CB881A430B891A434B8945
:101960001A438B891A43A0F8442070474FF6FF7141
:10197000818000210180C180418001727047002177
:10198000018041808180C180018141818181C1814B
:101990007047002101804180012181800021C180A8
:1019A000018170470021018041808180C1800181D7
:1019B0004181818170470000002C014000340140CA
:1019C0000004004000080040000C004021B10288E3
:1019D00042F00102028004E002884FF6FE731A40D2
:1019E0000280704731B1B0F8442042F40042A0F8C0
:1019F000442005E0B0F84420C2F30E02A0F84420D1
:101A000070471AB183890B43838102E083898B433A
:101A1000838170478182704741EA0203A0F8483011
:101A200070471AB183890B43838102E083898B431A
:101A30008381704701894FF6F87211400181704728
:101A40000A46002101894FF68F7319401143018125
:101A5000704730B504460D4629462046FFF7F0FF93
:101A6000208940F00700208130BD2DE9F041044677
:101A70000D4616461F46602D06D13B4601223146D3
:101A80002046FFF75AFE05E03B460122314620463C
:101A9000FFF79DFE29462046FFF7D2FF208940F040
:101AA00007002081BDE8F08130B50C460021018996
:101AB000C9B24FF6FF7505EA0325154325432943AF
:101AC000018130BD2DE9F04105460E461746984686
:101AD000002443463A4631462846FFF7E5FF2C8965
:101AE0004FF6F870044044F007044FF68F7004403E
:101AF00044F070042C81BDE8F081F0B504460D4639
:101B000016461F463B46324629462046FFF7CCFF85
:101B1000208940F480402081F0BD01858282704799
:101B20000A46002101884FF68F7319401143018046
:101B30007047F0B50C4615461E46002100220023D2
:101B40000189028B038C4FF6F877394021434FF619
:101B5000FC473A4040F201173A434FF6DD773B40ED
:101B60004FF6FF7707EA06172F433B4301810283B5
:101B70000384F0BD0A460021018B4FF68F73194094
:101B80001143018370470A460021018B48F6FF7319
:101B900019404FF6FF7303EA02231943018370478C
:101BA0000A460021818B4FF68F73194011438183C0
:101BB00070470A460021818B48F6FF7319404FF6A3
:101BC000FF7303EA022319438183704721B102881E
:101BD00042F08002028004E002884FF67F731A40D0
:101BE0000280704721B1828842F00402828004E0C2
:101BF00082884FF6FB731A408280704721B1828839
:101C000042F00802828004E082884FF6F7731A409F
:101C10008280704721B1828842F00102828004E014
:101C200082884FF6FE731A40828070470A46002170
:101C3000018B4FF6F77319401143018370470A4631
:101C40000021018B4FF2FF7319404FF6FF7303EA37
:101C500002231943018370470A460021818B4FF606
:101C6000F77319401143818370470A460021818B25
:101C70004FF2FF7319404FF6FF7303EA0223194333
:101C8000818370470A460021018B4FF6FB73194090
:101C90001143018370470A460021018B4FF6FF3341
:101CA00019404FF6FF7303EA02231943018370477B
:101CB0000A460021818B4FF6FB7319401143818343
:101CC00070470A460021818B4FF6FF3319404FF6CB
:101CD000FF7303EA02231943818370470A460021F8
:101CE000018B4FF67F7319401143018370470A46F9
:101CF0000021018BC1F30E014FF6FF7303EA0223AB
:101D00001943018370470A460021818B4FF67F7388
:101D100019401143818370470A460021818BC1F32A
:101D20000E014FF6FF7303EA0223194381837047C4
:101D30000A460021018C4FF6FD73194011430184BE
:101D400070470A460021018C4FF6F7731940114382
:101D5000018470470A460021018C4FF6DF73194059
:101D60004FF6FF7303EA02131943018470470A46D2
:101D70000021018C4FF67F7319404FF6FF7303EA81
:101D800002131943018470470A460021018C4FF663
:101D9000FF5319404FF6FF7303EA022319430184EE
:101DA00070470A460021018C4FF2FF7319404FF62D
:101DB000FF7303EA02231943018470470A46002196
:101DC000018C4DF6FF7319404FF6FF7303EA02339F
:101DD00019430184704730B5002301248C40A3B21D
:101DE000048C9C430484048C02FA01F5ADB22C43AC
:101DF000048430BD30B5002304248C40A3B2048C8D
:101E00009C430484048C02FA01F5ADB22C43048493
:101E100030BD70B503460020002418461830012557
:101E20008D40ACB21D8CA5431D8409B1082909D190
:101E300000EB6100056825F0700505600568154335
:101E400005600EE00D1FC5F34E052844056825F416
:101E5000E045056005684FF6FF7606EA0226354341
:101E6000056070BD21B1028842F00202028004E0E8
:101E700002884FF6FD731A400280704721B1028834
:101E800042F00402028004E002884FF6FB731A401D
:101E90000280704721B1828842F08002828004E093
:101EA00082884FF67F731A408280704702884FF60F
:101EB000F7731A40028002880A43028070478288C2
:101EC0004FF68F731A40828082880A43828070475F
:101ED00002894FF6F8731A40028102890A4302818F
:101EE000704702894FF67F731A40028102890A43C4
:101EF0000281704781847047818570478186704771
:101F00000187704781877047A0F8401070470288AA
:101F10004FF6FF431A40028002880A43028070474E
:101F20000146888E70470146088F70470146888FAA
:101F300070470146B1F8400070470146888C7047F1
:101F40000146088D704702460020138A0B400BB1F2
:101F5000012000E000207047CA430282704730B57C
:101F60000246002000230024158A05EA0103958912
:101F700005EA010413B10CB1012000E0002030BDDE
:101F8000CA4302827047000010B50446FB488442F1
:101F900009D101218803FFF79FF800214FF4804009
:101FA000FFF79AF832E0F648844209D1012148044B
:101FB000FFF79FF800214FF40030FFF79AF825E073
:101FC000F048844209D101218804FFF792F80021EA
:101FD0004FF48020FFF78DF818E0EB48844209D1D8
:101FE0000121C804FFF785F800214FF40020FFF716
:101FF00080F80BE0E548844208D101210805FFF78D
:1020000078F800214FF48010FFF773F810BD2DE928
:10201000F04786B005460E460024A24600BFA14602
:102020000027B08900B100BF2F462C8A4CF6FF7004
:102030000440F08804432C82AC894EF6F31004402F
:10204000B08831890843718908430443AC81AC8A64
:102050004FF6FF400440B0890443AC8201A8FEF76C
:10206000B4FFC648874202D1DDF810A001E0DDF8D8
:102070000CA0A88900F4004040B10AEBCA0000EBB4
:102080000A1031684900B0FBF1F807E00AEBCA001A
:1020900000EB0A1031688900B0FBF1F86420B8FB4E
:1020A000F0F004012009642101FB1089A88900F4E3
:1020B000004040B1322000EBC900B0FBF1F000F06D
:1020C0000700044308E0322000EB09106421B0FB54
:1020D000F1F000F00F0004432C8106B0BDE8F0875A
:1020E0004FF41651016000218180C18001810C21D3
:1020F000418100218181704710B502460020108A7D
:102100004FF2FF0318400B884C8823438C882343ED
:10211000CC8823431843108210BD002101804180E8
:102120008180C180704721B1828942F4005282814E
:1021300004E082894DF6FF731A4082817047F0B542
:102140000346002400260025002040F66A17B94205
:1021500000D100BF1846C1F3421401F01F06012749
:1021600007FA06F5012C01D10C3004E0022C01D154
:10217000103000E014301AB107682F43076002E006
:102180000768AF430760F0BD1AB1838A0B438382AF
:1021900002E0838A8B4383827047028A4FF6F07392
:1021A0001A400282028A0A430282704782894FF2F1
:1021B000FF731A40828182890A438281704721B16C
:1021C000828942F00202828104E082894FF6FD7327
:1021D0001A4082817047028A4FF6DF731A400282EA
:1021E000028A0A430282704721B1028A42F4804285
:1021F000028204E0028A4BF6FF731A4002827047A3
:10220000C1F308028280704701468888C0F3080045
:102210007047818941F0010181817047028BD2B200
:102220000283028B42EA012202837047028B02F48E
:102230007F420283028B0A430283704721B1828A64
:1022400042F02002828204E0828A4FF6DF731A4055
:102250008282704721B1828A42F01002828204E0B9
:10226000828A4FF6EF731A408282704721B1828AC8
:1022700042F00802828204E0828A4FF6F7731A4025
:102280008282704721B1828942F40042828103E058
:102290008289C2F30E028281704721B1828A42F4A0
:1022A0000062828204E0828A4FF2FF731A408282C7
:1022B0007047828A4FF6FB731A408282828A0A43F1
:1022C0008282704721B1828A42F00202828204E057
:1022D000828A4FF6FD731A408282704702460020C0
:1022E000B1F5007F00D100BF13880B400BB1012076
:1022F00000E00020704701F40072B2F5007F00D1C9
:1023000000BFCA430280704770B502460024002314
:102310000025002040F66A16B14200D100BFC1F38B
:10232000421501F01F03012606FA03F3012D02D125
:102330009689334006E0022D02D1168A334001E02F
:10234000968A33400C12012606FA04F416883440AB
:1023500013B10CB1012000E0002070BD10B50022C7
:10236000002340F66A14A14200D100BF0A120124E2
:102370009440A3B2DC43048010BD0000003801404B
:102380000044004000480040004C00400050004025
:1023900010B56FF00400FEF722F92E4800682E49B0
:1023A000B0FBF1F02D4908700846007800EB4001C1
:1023B000C1EBC0104FF6FF7101EAC0002849088048
:1023C00010BD0146254A12784A434FF0E0235A6176
:1023D00000229A611A46126942F001021A6100BF96
:1023E0004FF0E022106900F001021AB100F48032CF
:1023F000002AF5D04FF0E022126922F001024FF0DE
:10240000E0231A6100229A6170470146144A12883B
:102410004A434FF0E0235A6100229A611A4612693A
:1024200042F001021A6100BF4FF0E022106900F093
:1024300001021AB100F48032002AF5D04FF0E022F8
:10244000126922F001024FF0E0231A6100229A6122
:10245000704700000C00002000127A0034000020B9
:1024600036000020014600BF704700BF494A12886D
:1024700002F04002002AF9D0C2B2464B1B1D1A805E
:10248000704710B586B00446012144F20400FEF7FF
:1024900009FE4FF40070ADF8140003208DF816000B
:1024A00018208DF8170005A93B48FEF73FFB4FF4B5
:1024B0008060ADF8140004208DF8170005A9364897
:1024C000FEF734FB25208DF8000003208DF8010075
:1024D0008DF8020001208DF803006846FEF735F8FC
:1024E00001940020ADF80800ADF80A00ADF80C002A
:1024F000ADF810000C20ADF80E0001A92548FFF73B
:1025000086FD012240F225512248FFF718FE0121E5
:102510002048FFF708FE06B010BD10B540F2255167
:102520001C48FFF7F1FE10B31A48FFF76DFEC4B266
:102530001A48008800F40040C8B91848008800F420
:10254000804060B10A2C03D000201449088020E0AC
:102550001248008840F400401049088019E00D2C12
:1025600006D10E48008840F480400C49088010E0F5
:102570000A480088C0F30D0009490C540748008838
:10258000401C0649088008460088C72801DD002055
:10259000088010BD00380140000801403C000020C8
:1025A000F801002000B587B001210820FEF77AFD70
:1025B00006A8FEF746FBC020ADF8180004208DF8F1
:1025C0001B0006A94C48FEF7B1FA01210420FEF7D2
:1025D00076FD4A48FEF7CAFD03A94848FEF79AFE71
:1025E00040F21760ADF810000020ADF80C00ADF817
:1025F0001200ADF80E0003A94048FEF78BFE002341
:102600001A4603213D48FFF794FA6846FFF7C1F9DF
:102610000620ADF8080069463848FFF70EF9012199
:102620003648FFF799FC012211463448FFF7E9F9D3
:1026300042F2107031492431088001212F48FFF700
:10264000C5F907B000BD10B5FFF7ACFF10BD1CB554
:102650000020019000902948FFF76FFC00B2019024
:1026600005E0BDF80400A0F5C36000B20190BDF91B
:102670000400B0F5437FF4DA05E0BDF8040000F58E
:10268000C36000B20190BDF9040010F5437FF4DD92
:10269000BDF904004FF4B47148434FF4C36190FB9B
:1026A000F1F000B20090BDF900001CBD0146022906
:1026B00004D0032907D004290ED108E04FF080424E
:1026C000928C10B20AE00E4A128810B206E00B4A51
:1026D0002432128810B201E0002000BF00BF704712
:1026E00006481030008805481030008820F00100AE
:1026F0000249103108807047000C0140000800407A
:102700002404004000B587B001214FF40170FEF7AA
:10271000C9FC4FF40040FEF729FC0220ADF804008C
:1027200000208DF8070001A94F48FEF7FFF94F4838
:10273000FDF774FF002002908DF80C008DF80D005D
:102740004FF4602004900020059001208DF81800BF
:1027500002A94648FDF789FF01214448FDF7B1FF72
:102760004248FDF7D0FF00BF4048FDF7D1FF0028E9
:10277000FAD13E48FDF7D6FF00BF3C48FDF7D7FF32
:102780000028FAD101213948FDF7DBFF07B000BD71
:1027900010B504460723012221463448FDF7FDFF0A
:1027A00001213248FDF7CDFF00BF02212F48FEF77F
:1027B00039F90028F9D02D48FEF756F810BD2DE95B
:1027C000F0470024A146A24600BF08E00120FFF721
:1027D000DFFF204404B20AF1010000F0FF0ABAF161
:1027E000050FF3DB052094FBF0F004B2B4F58B6F1A
:1027F00015DD40F6A940844211DCA4F2594002F0F4
:1028000068F907461A4A1B4B01F0DCFF054602F047
:1028100031F900B2C0F1B4000FFA80F91AE0B4F552
:102820008B6F02DC04F5805004B2A4F6A94002F0DC
:1028300050F905460E4A52420F4B01F0C3FF0746BE
:1028400002F018F940420FFA80F909F1B40008B912
:102850004FF0B409B9F1000F03DA09F5B4700FFABB
:1028600080F94846BDE8F087000801400024014097
:102870008716D9CEF793274008EC254070B504465B
:10288000204602F0DBFB85B229462A48FFF73AFBD7
:1028900020212948FEF7F7F970BD70B5044620469F
:1028A00002F0CCFB85B229462248FFF72BFB202102
:1028B0002148FEF7EAF970BD70B5044600212046B4
:1028C00002F0F4FC0CD820211B48FEF7DCF920466E
:1028D00002F0B4FB85B229461648FFF713FB0FE060
:1028E00020211548FEF7D1F90021204602F00FFD06
:1028F000064602F0A3FB85B229460E48FFF702FB0D
:1029000070BD10B500210B48FFF7FCFA10BD08B5EB
:1029100001210C20FEF7C6FB2020ADF800000320AB
:102920008DF8020010208DF8030069460248FEF77A
:10293000FDF808BD00040040000801407FB50546D1
:102940000C4601210820FEF7BAFBADF80850ADF89F
:1029500004400020ADF80A00ADF8060001A99B482C
:10296000FEF7D8FC012211469848FFF74AF83220BA
:102970008DF8000000208DF8010003208DF8020082
:1029800001208DF803006846FDF7DFFD01218F4827
:10299000FFF71CF87FBD10B501218C48FFF7DFFA67
:1029A00000287DD001218948FFF7EAFA88480068AD
:1029B000012814D187480068401C86490860864871
:1029C0000068401C8449086008460068834909681B
:1029D000884204D100207E4908607F490860804811
:1029E0000068012814D17B480068401E79490860BE
:1029F00079480068401C78490860084600687749B3
:102A00000968884204D1002075490860724908604D
:102A10007448006874490860FFF7D1FE7149086086
:102A20000420FFF743FE714908607148006871494E
:102A30000968401A6B490968884269DA6C4800687D
:102A40006C490968084467490968884260DD65483F
:102A5000006802F013FB044600F0D0F966490860F4
:102A600066480068401C65490860084600680528FB
:102A70001AD15E48006800F0F0F961490860084624
:102A80000068B0F5FA6F02DD4FF4FA6008605C4848
:102A9000006810F5FA6F02DA5A485949086000E0F8
:102AA00093E000205549086053480068544909687C
:102AB000401A554908600846006854490968884228
:102AC00003DD52480068504908604F4800684F498C
:102AD00009684942884204DA4C48006840424A4941
:102AE00008604948006802F0C9FA0446FFF7E4FEAE
:102AF0003F480068401E3B490968884208DC394865
:102B000001683B480068401C814201DCFFF7F9FE88
:102B10003F48006878B933480168354800680F308D
:102B2000814206DC324800680F382E490968884225
:102B300001DDFFF7E6FE36480068012845D1294847
:102B4000006800280EDD2A4800682A490968401AF2
:102B500024490968884205DD2248006800F5B47000
:102B6000204908602248006822490968401A1D4926
:102B70000968884213DA1E4800681E49096808443B
:102B80001849096888420ADD22480068E8B91148F6
:102B900000882149088001201E49086015E00020B6
:102BA0001C49086016490860134908601649086006
:102BB0000D4800680B490968884203DD1748FFF794
:102BC0005DFE02E01548FFF768FE10BD000C0040F6
:102BD0007800002084000020740000207000002095
:102BE0007C00002040000020440000204C00002019
:102BF000980000206C0000204800002064000020A5
:102C00005000002030F8FFFF540000205800002042
:102C10000400002068000020240800400000E14477
:102C200008B501211020FEF73DFA01215848FEF7B2
:102C30004EF84FF40040ADF8000048208DF8030036
:102C400069465448FDF772FF2020ADF80000482087
:102C50008DF8030069465048FDF768FF4FF4806027
:102C6000ADF8000048208DF8030069464A48FDF79A
:102C70005DFF4FF40060ADF8000048208DF80300C0
:102C800069464548FDF752FF4FF48050ADF800000B
:102C900048208DF8030069463F48FDF747FF08BD0F
:102CA00010B5044614B101203C4908703B48007837
:102CB000002849D04FF400413648FDF7CAFFB0B1B3
:102CC00020213548FDF7C5FF88B14FF480613248B7
:102CD000FDF7BFFF58B14FF400612F48FDF7B9FF72
:102CE00028B14FF480512C48FDF7B3FF60BB0A2098
:102CF000FFF78BFB0020294908704FF4004125485D
:102D0000FDF7A7FF08B9012010BD20212248FDF7DB
:102D1000A0FF08B90220F7E74FF480611E48FDF7D5
:102D200098FF08B90320EFE74FF400611A48FDF758
:102D300090FF08B90420E7E74FF480511648FDF7EB
:102D400088FF10BB0520DFE74FF400411148FDF775
:102D500080FF012819D120210F48FDF77AFF0128B3
:102D600013D181020C48FDF774FF01280DD1C10277
:102D70000948FDF76EFF012807D101030648FDF75A
:102D800068FF012801D1054908700020BCE7000058
:102D900000023000000801400010014080000020C7
:102DA00070B505460C46284602F068F95749086098
:102DB000204602F063F95649086070BD2DE9F047DE
:102DC00081460C46484601F084FE07460022514BDE
:102DD00001F0F8FC054601F01BFC4F490860204655
:102DE00001F077FE074600224A4B01F0EBFC054656
:102DF00001F00EFC49490860BDE8F0872DE9F04775
:102E000005464748006802F039F90746294602F0AE
:102E10007EFA044643480168204602F083FA42499C
:102E200008603B4801684048006802F073F9824638
:102E30003648006880F000492146484602F06AF9A9
:102E40008046514602F06EFA074602F0DBF806466D
:102E5000344804603046BDE8F0872DE9FC478246DF
:102E600032490968AAEB010002F008F9304908600C
:102E70003048006802F02CF804462F4A2F4B01F02E
:102E80003FFE064601F0C4FB2A4908602848006856
:102E900002F01EF80646284A294B01F031FE04468E
:102EA0000D462448006802F013F8804622462B465F
:102EB00001F0E0FBCDE9000101F0AAFB1D4908602B
:102EC000204801681B48006802F02CFA1E4908607F
:102ED000184800681B490860104801681A480068D3
:102EE00002F018F904460C4801681248006802F024
:102EF00011F90546214602F017F814490860084602
:102F0000006802F07FF8BDE8FC8700008800002020
:102F10008C0000200000244090000020940000203D
:102F2000980000209C000020A000002084000020C9
:102F3000B4000020AC0000209A9999999999E93F32
:102F40009999C93FA8000020B0000020A4000020EB
:102F500030B589B004460D4601210220FEF7AFF8D6
:102F600001210820FEF79EF80120ADF8200018206E
:102F70008DF8230003208DF8220008A91B48FDF7D7
:102F8000D5FD1B48FEF7F2F8ADF814500020ADF85F
:102F90001600ADF81840ADF81A008DF81C0005A910
:102FA0001348FEF7B7F96020ADF804000120ADF832
:102FB00006000020ADF80A00ADF80C00ADF81000D6
:102FC00001A90B48FEF772FA01210948FEF7FEFC41
:102FD00008210748FEF740FE01210548FEF7F6FDEF
:102FE00001210348FEF7FEFC09B030BD000C014092
:102FF0000004004010B58CB004461E230BAA03A9A0
:10300000204600F0A5FE0090009810B101200CB001
:1030100010BD9DF82C00044400200B900EE04048A9
:103020009DF82C2050F8221003A800F0F9FD00B9FB
:1030300008E09DF82C00401CC0B20B909DF82C00BD
:103040000728ECD300BF9DF82C00072863D2DFE8E7
:1030500000F004053C5E6564630000BF31A001F030
:1030600075F831A001F072F83FA001F06FF84EA0A2
:1030700001F06CF85CA001F069F86BA001F066F853
:1030800079A001F063F886A001F060F88BA001F050
:103090005DF890A001F05AF894A001F057F899A0BB
:1030A00001F054F89EA001F051F8A4A001F04EF8F0
:1030B000B0A001F04BF8BDA001F048F8C8A001F0A5
:1030C00045F8D4A001F042F89AE216A001F03EF8CB
:1030D000E0A001F03BF800200B900EE0ED48006806
:1030E0009DF82C2000EBC2004168EBA001F02EF807
:1030F0009DF82C00401CC0B20B90E648007D9DF866
:103100002C108842EADC07A001F020F878E205A044
:1031100001F01CF8C4E171E245E219E2ECE10000C3
:10312000B80000200D0A00002D2D2D2D2D2D2D2D48
:103130002D2D2D2D2D2D2D2D2D2D2D2D2D2D2D2DBF
:1031400055534D4152542056332E312D2D2D2D2DBA
:103150002D2D2D2D2D2D2D2D2D2D2D2D2D2D2D2D9F
:103160002D2D2D200D0A00002020202055534D41EB
:103170005254CAC7D3C9414C49454E54454BBFAAC6
:10318000B7A2B5C4D2BBB8F6C1E9C7C9B5C4B4AE1D
:10319000BFDAB5F7CAD4BBA5BDBBD7E9BCFE2CCD01
:1031A000A8B9FD200D0A0000CBFC2CC4E3BFC9D296
:1031B000D4CDA8B9FDB4AEBFDAD6FACAD6B5F7D326
:1031C000C3B3CCD0F2C0EFC3E6B5C4C8CEBACEBA52
:1031D000AFCAFD2CB2A2D6B4D0D02ED2F2B4CB2C32
:1031E000C4E3BFC90D0A0000D2D4CBE6D2E2B8FCDA
:1031F000B8C4BAAFCAFDB5C4CAE4C8EBB2CECAFD02
:1032000028D6A7B3D6CAFDD7D62831302F3136BD40
:10321000F8D6C629A1A2D7D6B7FBB4AEA1A2BAAF41
:10322000CAFDC8EB0D0A0000BFDAB5D8D6B7B5C8DD
:10323000D7F7CEAAB2CECAFD292CB5A5B8F6BAAF3B
:10324000CAFDD7EEB6E0D6A7B3D63130B8F6CAE499
:10325000C8EBB2CECAFD2CB2A2D6A7B3D6BAAFCABB
:10326000FDB7B5200D0A0000BBD8D6B5CFD4CABE75
:103270002ED0C2D4F6B2CECAFDCFD4CABEBDF8D6C7
:10328000C6C9E8D6C3B9A6C4DC2CD0C2D4F6BDF8F2
:10329000D6C6D7AABBBBB9A6C4DC2E0D0A00000057
:1032A000BCBCCAF5D6A7B3D63A7777772E6F7065D0
:1032B0006E6564762E636F6D0D0A000055534D41A7
:1032C0005254D3D037B8F6CFB5CDB3C3FCC1EE3A24
:1032D0000D0A00003F3A202020202020BBF1C8A189
:1032E000B0EFD6FAD0C5CFA20D0A000068656C70A9
:1032F0003A202020BBF1C8A1B0EFD6FAD0C5CFA2AA
:103300000D0A00006C6973743A202020BFC9D3C332
:10331000B5C4BAAFCAFDC1D0B1ED0D0A0A000000B4
:1033200069643A2020202020BFC9D3C3BAAFCAFDA8
:10333000B5C44944C1D0B1ED0D0A0A006865783AB8
:1033400020202020B2CECAFD3136BDF8D6C6CFD45B
:10335000CABE2CBAF3B8FABFD5B8F12BCAFDD7D67E
:10336000BCB4D6B4D0D0BDF8D6C6D7AABBBB0D0A64
:103370000A0000006465633A20202020B2CECAFD16
:103380003130BDF8D6C6CFD4CABE2CBAF3B8FABF16
:10339000D5B8F12BCAFDD7D6BCB4D6B4D0D0BDF8C1
:1033A000D6C6D7AABBBB0D0A0A00000072756E74A0
:1033B000696D653A312CBFAAC6F4BAAFCAFDD4CB49
:1033C000D0D0BCC6CAB13B302CB9D8B1D5BAAFCA7F
:1033D000FDD4CBD0D0BCC6CAB13B0D0A0A00000058
:1033E000C7EBB0B4D5D5B3CCD0F2B1E0D0B4B8F11E
:1033F000CABDCAE4C8EBBAAFCAFDC3FBBCB0B2CE0B
:10340000CAFDB2A2D2D4BBD8B3B5BCFCBDE1CAF8E8
:103410002E0D0A002D2D2D2D2D2D2D2D2D2D2D2D4B
:103420002D2D2D2D2D2D2D2D2D2D2D2D2D2D414C99
:1034300049454E54454B2D2D2D2D2D2D2D2D2D2D0A
:103440002D2D2D2D2D2D2D2D2D2D2D2D2D2D2D20B9
:103450000D0A00002D2D2D2D2D2D2D2D2D2D2D2D39
:103460002D2D2D2D2D2D2D2D2D2D2D2D2DBAAFCAE0
:10347000FDC7E5B5A52D2D2D2D2D2D2D2D2D2D2D5A
:103480002D2D2D2D2D2D2D2D2D2D2D2D2D2D2D2D6C
:10349000200D0A000401002025730D0A0000000021
:1034A000EBA000F053FE00200B901AE0F8490968E9
:1034B0009DF82C2001EBC20101AB02AA486803A9C8
:1034C00000F06CFCF24800689DF82C1050F8312098
:1034D00003A9F0A000F03AFE9DF82C00401CC0B2F9
:1034E0000B90EB48007D9DF82C108842DEDCAFF29B
:1034F000CC3000F02BFE83E0AFF2D83000F026FE97
:103500000BAA03A9204600F025FD9DF82C00C8B9A0
:10351000694603A800F0B7FB0B909DF82C0020B97A
:10352000E1A0009900F012FE0EE09DF82C000428A6
:1035300001D002206BE5DFA000F008FE0120D44995
:10354000C87501E0022062E5D9A000F0FFFD57E058
:10355000D7A000F0FBFD0BAA03A9204600F0FAFC5F
:103560009DF82C00C8B9694603A800F08CFB0B90AD
:103570009DF82C0020B9D4A0009900F0E7FD0EE0E2
:103580009DF82C00042801D0022040E5D1A000F0D5
:10359000DDFD0020BE49C87501E0022037E5C4A06A
:1035A00000F0D4FD2CE0C2A000F0D0FD0BAA03A9CE
:1035B000204600F0CFFC9DF82C00C8B9694603A84E
:1035C00000F061FB0B909DF82C0078B9B049009891
:1035D00081F8EC00084690F8EC0018B1C2A000F0A9
:1035E000B5FD07E0C7A000F0B1FD03E002200EE545
:1035F00002200CE5AEA000F0A9FD01E0012006E5E7
:1036000000BF002003E5C648008A20F00100C4493D
:1036100008824FF6FF708885002088849C49C1F895
:10362000F0007047BE48008A00F0010040B19848A1
:10363000D0F8F0004FF6FF7108449549C1F8F0004A
:103640009348D0F8F000B749098808449049C1F878
:10365000F0000846D0F8F000704710B5B048008A76
:1036600000F0010040B18A49086980470020AC4958
:1036700088844FF47A708885A948008A20F0010078
:10368000A749088210BD7FB505460C4601211020D0
:10369000FDF715FDADF80850ADF804400020ADF879
:1036A0000A00ADF8060001A99D48FDF733FE01228E
:1036B00041219B48FEF7A5F936208DF80000032034
:1036C0008DF801008DF8020001208DF80300684696
:1036D000FCF73BFF01219248FEF778F97FBD10B55A
:1036E000044604EBC40000EB04100122C2EB80008E
:1036F00081B24FF47A70FFF7C6FF01206449C875A4
:1037000010BD30B595B0054613AB12AA09A92846DD
:1037100000F044FB044614B1204615B030BD002033
:10372000149026E05A4909689DF8502001EBC20127
:1037300013AB11AA486801A900F030FB04460CB194
:103740002046EAE709A901A800F06AFA60B99DF8E5
:1037500044009DF84810884201DD0220DDE79DF815
:1037600050004B4988750AE09DF85000401CC0B2DB
:1037700014904748007D9DF850108842D2DC00BF6D
:103780004348007D9DF85010884201D10420C4E7D1
:1037900014A9284600F04FFC04460CB12046BCE7B3
:1037A0009DF850003A4948750020B6E72DE9F041F0
:1037B0009AB000263648847D007DA04202DC1AB013
:1037C000BDE8F0813249096801EBC40106AB07AAE4
:1037D000486808A900F0E2FA08A953A000F0B6FC76
:1037E0000025BBE02A48008B0121A9400840D8B140
:1037F00022214FA000F0AAFC284600F00FFC24492B
:103800002431471839464BA000F0A0FC222148A0E3
:1038100000F09CFC284600F001FC1D4924310844BE
:1038200010A941F825008FE0284600F0F7FB184961
:103830002431085810A941F825001548C07D30B939
:1038400010A850F825103CA000F080FC7CE075E04A
:103850002D2D2D2D2D2D2D2D2D2D2D2D2D2D2D2D98
:103860002D2D2D2D2D2D2D2D2DBAAFCAFD204944E6
:10387000202D2D2D2D2D2D2D2D2D2D2D2D2D2D2D85
:103880002D2D2D2D2D2D2D2D2D2D2D2D200D0A00E5
:103890000401002025732069642069733A0D0A3001
:1038A00058253038580D0A004845583A30582558A0
:1038B0000D0A00003136BDF8D6C6B2CECAFDCFD44F
:1038C000CABE210D0A0000004445433A256C750D1F
:1038D0000A0000003130BDF8D6C6B2CECAFDCFD442
:1038E000CABE210D0A00000052756E2054696D6534
:1038F0002043616C63756C6174696F6E204F4E0D6F
:103900000A00000052756E2054696D652043616C99
:1039100063756C6174696F6E204F46460D0A000036
:1039200000100040240800400D0A25732800000004
:103930002563000025730000256C750010A850F861
:10394000251095A000F002FC9DF81C00401EA84226
:1039500002D093A000F0FAFB681CC5B29DF81C00D1
:103960008542FFF63FAF8FA000F0F0FBFFF74BFE64
:103970008D48407D0B280DD2DFE800F0060D151EA6
:1039800027323F4E5F7287008749096851F834003B
:103990008047064690E0844A126852F83410109826
:1039A0008847064688E0804B1B6853F83420DDE9E1
:1039B0001001904706467FE07B4F3F6857F8343050
:1039C00010A807C89847064676E0DFF8DCC1DCF8A7
:1039D00000C05CF8347010A80FC8B84706466BE00A
:1039E0001498DFF8C4C10090DCF800C05CF83470B3
:1039F00010A80FC8B84706465EE0DDE91401DFF8FD
:103A0000A8C1CDE90001DCF800C05CF8347010A852
:103A10000FC8B84706464FE0DDE914121698DFF8E4
:103A200088C1CDE900120290DCF800C05CF8347067
:103A300010A80FC8B84706463EE0DDE91423DDE9CB
:103A40001610DFF864C1CDE90023CDE90210DCF8DF
:103A500000C05CF8347010A80FC8B84706462BE0C9
:103A6000DDE9163218991598CDE9023204910190DA
:103A70001498DFF834C10090DCF800C05CF83470B2
:103A800010A80FC8B847064616E0DDE91623DDE9A1
:103A90001810CDE90223CDE90410DDE91401DFF8A7
:103AA00008C1CDE90001DCF800C05CF8347010A852
:103AB0000FC8B847064600BF00BFFFF7B3FD9DF82B
:103AC000180001280CD13848C07D20B9314637A0F4
:103AD00000F03CFB07E0314636A000F037FB02E087
:103AE00033A000F033FB304890F8EC0088B12E484A
:103AF000D0F8F0000A21B0FBF1F201FB12072A48CE
:103B0000D0F8F000B0FBF1F83A4641462CA000F0A6
:103B10001DFB00BF53E670B53148008800F400403B
:103B2000002833D02E48057800202E4948551E48DD
:103B300081682C48884704461CB91B49C8688047DF
:103B400021E02848FFF756FA0546012D00D02C4603
:103B5000CCB1012C06D0022C08D0032C0AD0042CA6
:103B600010D10BE020A000F0F1FA0BE021A000F052
:103B7000EDFA07E022A000F0E9FA03E023A000F04C
:103B8000E5FA00BF00BF00201549088070BD01465E
:103B900008687047016070473058255800000000E1
:103BA0002C00000029000000040100203D256C7558
:103BB0003B0D0A003D305825583B0D0A000000001F
:103BC00046756E6374696F6E2052756E2054696D10
:103BD000653A25642E2531646D730D0A00000000DE
:103BE0003C000020F8010020BAAFCAFDB4EDCEF3CE
:103BF000210D0A00B2CECAFDB4EDCEF3210D0A00AC
:103C0000B2CECAFDCCABB6E0210D0A00CEB4D5D2FF
:103C1000B5BDC6A5C5E4B5C4BAAFCAFD210D0A003D
:103C200002460AE010780B78984201D001207047D4
:103C3000107800B902E0521C491CF3E700BF0020D5
:103C4000F5E706E002780A70027802B902E0401C4B
:103C5000491CF7E700BF70470146002005E00A78DD
:103C600002B903E0421CD0B2491CF8E700BF70471C
:103C700010B50246012000E050430B00A1F1010401
:103C8000E1B2F9D110BD2DE9F04307460E460025FB
:103C90004FF00A083C46002030601FE020783928A9
:103CA00002DC207830280ADA2078462802DC2078E6
:103CB000412804DA2078582809D1012D07D120782D
:103CC000412801DB4FF01008681CC5B205E02078E0
:103CD00000B904E00120BDE8F083641CDEE700BF0A
:103CE0003C46B8F1100F0FD1032D01DA0220F2E7A4
:103CF0002078302806D16078582803D1A41CA81E4B
:103D0000C5B204E00320E6E70DB90420E3E71BE0B9
:103D10000DB1681EC5B22078392806DC207830281D
:103D200003DB2078A0F1300902E02078A0F1370908
:103D300029464046FFF79CFF316809FB00103060C0
:103D4000641C207800B900E0E2E700BF0020C2E771
:103D500010B50446002010700BE020780870641C39
:103D6000491C1078401C10701078984201DB01202B
:103D700010BD2078202802D020780028EDD1002026
:103D8000087000BFF4E70146491C00E0491C0878B0
:103D9000202801D10029F9D1087870472DE9FF4F7B
:103DA00085B08046894600270020049003900120BA
:103DB00002904FF0000B002544461DE0207820289B
:103DC00016D005F07F00052812DA0DB945F0800500
:103DD00005F07F00042803D120782A2800D00EE0C7
:103DE000207805F07F010DF80100681CC5B202E0E3
:103DF000852D00D103E0641C20780028DED100BFAF
:103E00008DB1002005F07F010DF80100CBA16846BF
:103E1000FFF706FF18B900210898017002E00121A0
:103E20000898017000254FF0000A444614E0641C15
:103E30000AF1010000F0FF0A2078202802D0207843
:103E40002A2809D12046FFF79EFF0646282E03D0D8
:103E50002A2E01D0CDF810A02078282802D0207872
:103E60000028E4D14446049810B10498401C04444E
:103E70004FF0000A002654E0207810B94FF0010AF4
:103E800050E02078282803D116B9781CC7B213E077
:103E90002078292808D13EB917B1781EC7B201E0B1
:103EA0004FF0010A47B93DE02078222804D10EB92D
:103EB000012000E00020064647B9207820282FD0B6
:103EC000207889F8000009F1010929E020782C28E0
:103ED00004D101200290681CC5B214E0207820288B
:103EE00011D0207828280ED04DB9BBF1050F06DA85
:103EF00020780DF80B000BF1010000F0FF0B029889
:103F0000401CC0B20290012F0AD10298022807D1AA
:103F10000298401CC0B202900398401CC0B20390AB
:103F2000641CA9E700BF0398012809D100200DF8FF
:103F30000B0082A16846FFF773FE08B900200390CA
:103F4000079903980870002089F80000504609B0CE
:103F5000BDE8F08FF0B5034615460020002200268C
:103F6000002455E01F782C2F01D104B901221F78BD
:103F7000292F01D01F780FB904B94AE0002E34D19F
:103F80001F78302F02DB1F78392F11DD1F78612F4A
:103F900002DB1F78662F0BDD1F78412F02DB1F78B5
:103FA000462F05DD1F78582F02D01F78782F0CD1AF
:103FB00002B12EE01F78612F03DB1F78203F0F70C6
:103FC00001E01F780F70491C1FE01F78222F04D1D9
:103FD00002B11EE00126012417E01F78202F14D023
:103FE0001F782C2F11D0FF2613E01F78222F00D12D
:103FF000002402B10DE044B11F785C2F02D15B1C9C
:10400000471CF8B21F780F70491C471CF8B25B1CA4
:10401000A8E700BF00270F702E70F0BD02460020F9
:10402000002105E0474B5B5C0344D8B24B1CD9B27E
:104030009142F7DB70472DE9F043B5B005460F46D6
:104040000024002604E000213E488155701CC6B2C1
:104050000A2EF8DB06E06D1C287818B9012035B06F
:10406000BDE8F08328782828F5D16D1C61E034AADA
:1040700069462846FFF76EFF064635449DF8D00096
:1040800020B1012827D0FF284CD149E09DF800003D
:1040900000B333A96846FFF7F6FD06460EB10220CD
:1040A000DDE72046FFF7BAFF26490A31339A0A5066
:1040B000A1F12400008B0121A140884321491A3934
:1040C000088304211F480155601CC4B20A2C01DD7D
:1040D0000320C4E726E06846FFF7BEFD401C00F061
:1040E000FF082046FFF79AFF16490A3100EB010945
:1040F00049466846FFF7A5FD12481A38018B012092
:10410000A040014388B20F491A3908830D4800F8CE
:104110000480601CC4B20A2C01DD03209FE701E08B
:1041200002209CE700BF2878292801D0287800B910
:1041300000E09CE700BF3C70002090E7766F696468
:10414000000000001E010020704700000FB4044969
:1041500010B503AA029800F0F5F910BC5DF814FB45
:104160003800002070B5044685690068C10601D595
:10417000302600E02026C00707D070BDD4E9012119
:1041800030469047206A401C20626D1EF6D570BDF7
:1041900070B5044685690078C00707D170BDD4E9C1
:1041A000012120209047206A401C20626D1EF6D518
:1041B00070BD70B50C460546012A05D028788006EA
:1041C00000D5EA69002302E0012305E05B1C93426D
:1041D00002D2E05C0028F9D1A869E618C01AA861EB
:1041E000286A184428622846FFF7BCFF04E0D5E996
:1041F000012114F8010B9047B442F8D32846FFF789
:10420000C7FF70BD2DE9F0410646002410687529EE
:10421000314616A510D0AFF30080002802DA4042E4
:1042200013A507E031688A0701D512A502E0490706
:1042300004D511A5012401E0AFF3008000210A227A
:1042400006F1240709E0B0FBF2FCB0FBF2F302FB3D
:104250001C00303078541846491C0028F3D12346FE
:104260002A463046BDE8F04100F0FCB800000000EE
:104270002D0000002B0000002000000070B5044657
:104280000D4621461068AFF300802188090502D54C
:104290000F4A7A4402E00E4A7A440E32002104F1B9
:1042A000240305E000F00F060009965D5E54491CEA
:1042B0000028F7D120780023000704D5702D02D004
:1042C00009B1022311322046BDE8704000F0CAB89F
:1042D000781100002DE9F05F894604464FF0000A8E
:1042E000DFF874B1FB44C0F820A02046E16888479D
:1042F000002874D0252806D0D4E901219047206AEF
:10430000401C2062F1E700265F462046E1688847AE
:104310002028054607DB312D05D2781910F8200C2E
:1043200008B10643F1E7B00701D526F00406C4F84A
:104330001CA00027C4F818A02A2D09D0284600F098
:104340005FF938B304EB8708303DC8F8185019E01E
:1043500059F8041B204604EB87029161E168884705
:10436000012F054618D1E069002820DA26F0200642
:104370001DE0D8F8180000EB800005EB4000303855
:10438000C8F818002046E1688847054600F038F96B
:104390000028EED1012F0AD02E2D08D12046E16849
:1043A00088477F1C0546022F46F02006C4DBA06923
:1043B000002803DA404246F00106A061F00701D070
:1043C00026F010066C2D0BD0682D09D04C2D39D05D
:1043D0006A2D35D0742D35D07A2D33D016E038E0E3
:1043E000E1682F4620468847B842054609D16C2F20
:1043F00026D04FF48060E168064320468847054692
:1044000004E06C2F1AD04FF4807006430DB3A5F171
:104410004100192802D8203546F400664A4629464C
:10442000204626604E46FBF7DDFE80B101280BD00A
:10443000F61D26F0070000F1080956E74020E4E7E2
:104440008020D8E70020D6E706F104094DE728468A
:1044500052E7206ABDE8F09F4E1100007047704798
:10446000704770472DE9F0470D469946924604463D
:1044700000F124080168880604D5E06921F01001E4
:10448000216000E00120A84201DD471B00E0002779
:10449000A1697A1902EB0900081AA0612078C00608
:1044A00002D42046FFF75EFE002608E0D4E9012191
:1044B0001AF806009047206A401C761C20624E4580
:1044C000F4DB2078C0060AD52046FFF74BFE06E055
:1044D000D4E9012130209047206A401C2062381E18
:1044E000A7F10107F4DC07E0D4E9012118F8050081
:1044F0009047206A401C2062281EA5F10105F3DCCC
:104500002046FFF745FE2078000602D50220BDE8D0
:10451000F0870120FBE710B5436913B1AFF30080CA
:1045200001E0FFF746FE012010BD127800F12401E2
:104530000A7000224A700122EDE711684FF0FF3245
:10454000E9E70000074B70B50D467B4400F011F819
:104550000446284600F020F810B14FF0FF3070BD3F
:10456000204670BD1DDFFFFF01694A1C026108780B
:10457000704700B58FB0CDE90131002105910549A3
:104580007944CDE9031011466846FFF7A3FE0FB04A
:1045900000BD0000E5FFFFFF007B00F080007047DA
:1045A000754600F029F8AE4605006946534620F0EE
:1045B0000700854618B020B5FBF7B0FFBDE82040E6
:1045C0004FF000064FF000074FF000084FF0000BCF
:1045D00021F00701AC46ACE8C009ACE8C009ACE882
:1045E000C009ACE8C0098D4670470446AFF30080AF
:1045F0002046FBF715FE000000487047C00200206F
:1046000030380A2801D2012070470020704700008E
:1046100021F00042A2F16052B2F5801F01F0004388
:1046200028BFD2F17F6C0BD95FEA001C43EAC202BB
:1046300042EB507018BF704728BF20F00100704750
:10464000B2F5801FBCBF184670474FEA410C1CF5FD
:10465000001F02D2084600F024BE70B500F0FAFA3E
:1046600000000089FFF7F6BF4FF00040A0F5800082
:104670007047000010B591EA030F48BF83F0004374
:1046800000F14483841A71EB030C05D2121943EB39
:104690000C03001B61EB0C01DFF824E14FEA11541D
:1046A000A4EB135C1EEA430F18BF9EEA445F73D06D
:1046B00023EA0E03DCF1200E21EA045143F48013B7
:1046C00032D322FA0CFE10EB0E0023FA0CFE41EB63
:1046D0000E01CCF1200E03FA0EFE10EB0E0051F18C
:1046E0000001B1F5801FCCF1200E32D201EB045154
:1046F00012FA0EF2BDE8104058BF7047401C38BF98
:104700005FEA420218BF7047002814BF20F0010082
:1047100041F100014FEA410313F5001F38BF704714
:10472000A1F1C04100F0E4BA012A43EB0302ACF16D
:10473000200CDCF11F0E32BF4FF0000E23FA0CF3F9
:1047400010EB030041EB0451B4EB115FD0D0A1EBAF
:10475000045101F5801149085FEA300001EB045172
:104760000ED350F1000038BF12FA0EFE08D1BDE89A
:104770001040C9E7401C38BF5FEA4202CAD1C3E714
:10478000BDE810404FEA410313F5001F38BF7047E2
:10479000A1F1C04100F0ACBA9EEA445F08D011EA32
:1047A0005E0FBDE8104004BF01F0004100207047DB
:1047B000BDE8104070B500F04DFA00BF64FBBE3E8E
:1047C0000000E0FF2DE9C04130B4DFF8A0C23CEAB0
:1047D000111418BF3CEA131400F0EC8081EA0305C1
:1047E0001CEA111444EAD57418BF1CEA131500F032
:1047F000C780A4EB05044FF0004545EAC12145EA16
:10480000C32341EA505143EA525304F17F74994261
:1048100004F500344FEAC0204FEAC22208BF90429C
:1048200000F09C804FEA13650FF24016765D4FEA68
:10483000134506FB05F7C7F1807706FB07F74FEA3C
:10484000D737A7FB03687642C8F58038A7FB06CEAA
:1048500038BFA8F1010807FB08E64FF0000EA6FBE1
:10486000028CE6FB03CEDCF1000CCEF1004E38BF2B
:10487000AEF1010EA6FB0C584FF000074FF00005FB
:10488000E6FB0E87A1FB08C6A0FB07CE16EB0E06C3
:1048900045F10005E1FB076515F1E04E7EBFA4F58B
:1048A00080345FEA46066D4116F1800745F1000548
:1048B0004FEA17274FEA066647EA0567A6F1DE4684
:1048C000B6F1805F4FEA15251FD9384624F0010C58
:1048D00005EBC471BCF1FE6F01EB0C1102D8F0BC0A
:1048E000BDE8008124425CBF01F5801E9EEAC47FC2
:1048F00002D4F0BCBDE80081244238D4F0BCA1F160
:10490000C041BDE8004100F0F3B94FEAD22242EACB
:1049100043524FEAD323A7FB02864FEAD02040EA56
:10492000415007FB03661EEA0E0F4FEAD12105FB3B
:10493000026658BFA6EB0056B6EB00564FEA520E81
:104940004EEAC37E18EB0E0E56EB530EBDD518EB98
:1049500002085E417F1C55F10005B6E74FF4801553
:104960004FF000074FF000064FF00008ADE7F0BC35
:104970004FF0000001F1C04101F00041BDE80081AD
:1049800011EA0C1F0CEA131500D00CE013EA0C1FFF
:1049900000F025804FF00000F0BC81EA030101F037
:1049A0000041BDE80081F0BCBDE8004181EA03019F
:1049B00000F09EB9F0BCBDE8004170B500F04AF9C6
:1049C000097EFC3E00F007B881EA03014FF00000C9
:1049D00001F00041704781EA030100F089B9F0BCA1
:1049E000BDE800414FF0000021497047FFFDFBF991
:1049F000F7F5F4F2F0EEEDEBE9E8E6E4E3E1E0DE12
:104A0000DDDBDAD8D7D5D4D3D1D0CFCDCCCBCAC883
:104A1000C7C6C5C4C2C1C0BFBEBDBCBBBAB9B8B7AA
:104A2000B6B5B4B3B2B1B0AFAEADACABAAA9A8A89D
:104A3000A7A6A5A4A3A3A2A1A09F9F9E9D9C9C9B6B
:104A40009A99999897979695959493939291919016
:104A50008F8F8E8E8D8C8C8B8B8A898988888787A7
:104A60008685858484838382828181800000FF071C
:104A70000000F87F4FEA41034FEA5353A3F58063E8
:104A8000D3F11E03C8BFD3F1210C0CDD4FF000425F
:104A900042EAC12242EA505232FA03FC8CEAE17C3B
:104AA000ACEBE1707047102BC4BF0020704703F5DA
:104AB000787CBCF1FF3F04D06FF0004282EA210015
:104AC000704770B500F0C6F8499224800020704706
:104AD000F2E710F0004248BF4042B0FA80F310FA0B
:104AE00003F10AD0C3F11D0303F580634FEA41507F
:104AF00002EB035202EBD12170474FF000007047E8
:104B0000DFF848C170B51CEA111E1EBF1CEA131560
:104B10009EEA0C0F95EA0C0F00F06F8081EA030407
:104B200023EA4C134EEAD47E21EA4C1141F4801161
:104B300043F48013AE44A1FB024CA0FB0365AEF12D
:104B40007F7E361955EB0C05A1FB034C4CF100039D
:104B5000A0FB021C16EB0C06654153F10003094251
:104B600018BF46F0010613F4007F0BD14FEA033162
:104B70004FEA0530340341EA155140EA16506FF010
:104B800003020AE04FEAC3214FEAC520F40241EADA
:104B9000555140EA56506FF0020202EB2E4201EBF3
:104BA000025585EACE710AD05FEA440C18BF24F0A2
:104BB000004450F1000041F1000120EAD47040F2BD
:104BC000FE7C624500D270BDA84214BF4FF0804405
:104BD0004FF04044002E08BF0024BEF1806FA8BFF4
:104BE000A1F1C041BDE8704080F282804FF000002A
:104BF00001F1C04101F0004170479EEA0C0F0CEA40
:104C0000131518BF95EA0C0F06D04FF0000081EA8B
:104C1000030E0EF0004170BD00F01CF88900013E4B
:104C200000F007B800F009B84FEA430C5FEA5C5C9B
:104C300008D081EA030100F05BB84FEA410C5FEA5B
:104C40005C5CF6D14FF00000014970470000FF079F
:104C50000000F87F0EF1020E2EF0030E5EF8046BDA
:104C6000364205D4012A43EB030515F5001F12D87F
:104C7000012841EB010C1CF5001F0CD80ED14FEAA6
:104C8000D17C15F5001F0CEB4C0C0CF1020C08BF8D
:104C90004CEBD37C04E04FF0080C01E04FEAD37CEE
:104CA0000CEB4C0526FA05F606F00706B6F1040CE7
:104CB00006D20EEB860CBDE870404CF0010C60474C
:104CC000DFE80CF0090B02024FF000414FF000004A
:104CD000A1F5002170BD19461046012851EB0104D1
:104CE00018BFD4F5001484BF002001F0004170BD4E
:104CF0000808A0F500114FEA3101704710B591EA9C
:104D0000030F48BF83F000433FF5BCAC841A71EB3E
:104D1000030C07D212198CF0004C43EB0C03001B60
:104D200061EB0C01DFF8A4E14FEA1154A4EB135C32
:104D30001EEA430F18BF9EEA445F00F0B08023EAEA
:104D40006E03524221EA0451C3EB6E0338BF5B1E6F
:104D5000DCF1200E25D322FA0CFE10EB0E0043FAF4
:104D60000CFE41EB0E01CCF1200E03FA0EFE10EB0F
:104D70000E0051F10001CCF1200E29D412FA0EF2EE
:104D800001EB0451BDE8104058BF7047401C1CBFE8
:104D9000B2F1004F704700280CBF491C20F0010001
:104DA000704712EB020E43EB030218BF4FF0010EE7
:104DB0004EEA4202ACF1200CDCF11E0E54D943FA4B
:104DC0000CFE10EB0E0051F1FF31CCF11E0ED5D5CB
:104DD0000EF1010E12FA0EFE404141EB010101EB12
:104DE000445C5FEA5C5C10D910EBDE7001EB0451AF
:104DF00038BFBEF1004FBDE8104018BF7047002813
:104E00000CBF491C20F00100704730D24FEAD42C6F
:104E100011F5001124F400641BD0B1FA81F20B3AB1
:104E2000A41AA41ED2F12003914030FA03F31943CF
:104E3000904001EBCC71002C01EB0451BDE8104017
:104E4000A8BF704701F1C0414FF0000001F00041E0
:104E50007047B0FA80F310FA03F100D110BDE41AE4
:104E6000173C4805C90AE4E701EB045110BD49109D
:104E700001EB0451BDE810404FEA300002E04FF072
:104E8000000170474A0008BF0042F8D0B2F5001F89
:104E900028BF704701F000414FF0000070479EEAC4
:104EA000445F07D011EA5E0FBDE8104004BF002147
:104EB00000207047BDE8104070B5FFF7CBFE00BF83
:104EC00040DFF63E83F00041104670470000E0FFEF
:104ED00043004FEAD30C4FEA3C0C43401FBF40074E
:104EE0000CF1605113F0FE4F70471CF0006F03D1BE
:104EF00000200CF0004170470CF0004343EA507072
:104F000010B540EACC0000F086F900BF0000009226
:104F10004FEA0001FFF7ECBE4FF000414FF00000F8
:104F2000A1F500217047000090EA010F48BF81F011
:104F3000004100F1FE81421A3CBF801A89184FEAF5
:104F4000D0524FF07F4C1CEA410FA2EBD15318BF57
:104F50009CEA026F00F03B804FF0004C4CEA0020CE
:104F60004CEA012121FA03FC10EB0C0C1ED202F1D9
:104F7000FF325FEA1C2040EBC25038BF70471CF084
:104F80007F0F4FEA400C18BFBCF17F4F38BF70470E
:104F9000C3F12003994008BF20F00100BCF17F4F0E
:104FA00038BF7047A0F1C04000F07BB94FEA3C0029
:104FB000000A40EBC25028BF1CF0FF0F4FEA400C24
:104FC000E6D018BFBCF17F4F38BF7047EAE79CEAD4
:104FD000026F05D010EA5C0F08BF00F00040704778
:104FE00010B500F018F900BF64FBBE3E401058BF7A
:104FF000C0F14040491058BFC1F140418142EFF338
:105000000080704741000B0ED3F19E0208D950F486
:1050100000034FEA032323FA02F048BF40427047DF
:1050200010B500F0F8F800BF4992248000207047C6
:105030006FF0004282EA200070470000C10DD1F1FC
:105040009E0206DB4FEA002343F0004323FA02F0FE
:105050007047004207D54FEA4001B1F1FE4F02D23E
:105060004FF00000704710B500F0D5F84992248049
:10507000002070476FEA20007047000010F00041E8
:1050800048BF4042B0FA80F310FA03F2C3F19D0327
:105090000BD051EAC35101EB1220530638BF7047C1
:1050A00000F1010008BF20F00100704750EA010C38
:1050B00000F113801CF5000F58BFBCF5000F01D4A0
:1050C0008842704707D710F5000F58BF11F5000F41
:1050D00015D488427047894270471CF5000F04D5EB
:1050E000BCF5000FF7D5814270474FF0807C1CEB78
:1050F000400F38BF1CEB410F01D28142704710B501
:1051000000F089F8922449004FF000504FF0805190
:10511000FFF76CBF4FF47F0C1CEAD0121EBF1CEAD5
:10512000D11392EA0C0F93EA0C0F00F0478090EA3B
:10513000010F48BF42F480724FF0004C4CEA00204F
:105140004CEA012102EB0302A0FB0113A2F50002CD
:10515000002918BF43F001035B0028BF4FEA330367
:1051600042EB22425FEA132C4CEBC2502EBFBCEB49
:10517000436FB2F57C0F70474FEA036CBCF1004FF0
:1051800008BF20F00100B2F57C0F38BF70470BD587
:1051900082F0FF0212F5803FC8BF704700F1C040A7
:1051A000D8BF00F00040704700F5000C5FEA4C0CDF
:1051B00048BF7047B0F1C04000F073B890EA010FEB
:1051C0000CEAD11348BF42F48072624538BF634590
:1051D00004D280EA010000F00040704710B500F0F2
:1051E0001AF800BF8900013E00F007B800F009B8C6
:1051F0005FEA410C5FEA1C6C08D080EA010000F015
:1052000050B85FEA400C5FEA1C6CF6D14FF00040EA
:10521000A0F5800070470EF1020E2EF0030E5EF82E
:10522000044B244204D44FEA4102B2F17F4F11D81B
:105230004FEA4003B3F17F4F0CD80ED14FEAD07C38
:10524000B2F17F4F0CEB4C0C0CF1020C08BF4CEB95
:10525000D17C04E04FF0080C01E04FEAD17C0CEB6C
:105260004C0324FA03F404F00704B4F1040C06D24E
:105270000EEB840CBDE810404CF0010C6047DFE8F9
:105280000CF0070802024FF00040A0F5800010BDAE
:105290000846420018BFD2F1807288BF00F000407B
:1052A00010BDFF2141EAD050C005704751EA000C03
:1052B00000F113801CF5000F58BFBCF5000F01D49E
:1052C0008142704707D711F5000F58BF10F5000F46
:1052D00015D481427047894270471CF5000F04D5F0
:1052E000BCF5000FF7D5884270474FF0807C1CEB6F
:1052F000410F38BF1CEB400F01D28842704780EA53
:10530000010081EA000180EA0100FFF7F8BE80F0A9
:10531000004090EA010F7FF50EAE81F0004100F0F1
:1053200008B8000090EA010F48BF81F000413FF546
:1053300002AE421A04D882F00042A0EB02001144EF
:105340004FEAD0524FF07F4C1CEA410FA2EBD153F1
:1053500018BF9CEA026F4AD04FF0004C4CEA002084
:105360004CEA012121FA03FCB0EB0C0C0FD412F033
:10537000FE0F36D05FEA4C001DD5001240EBC25044
:1053800038BF70471CF03F0F18BF70470BE0A2F109
:1053900001025FEA1C2040EBC25038BF70471CF08E
:1053A0007F0F18BF7047C3F12003994014BF401E00
:1053B00020F00100704780084FEA122308BF7047B1
:1053C000B0FA80FCA2EB0C02CCF1280C60FA0CF0D5
:1053D00093EA122F04BF00EBC25070474FEAC3702C
:1053E0007047130A5FEADC1008BF7047F6E79CEAD3
:1053F000026F04D010EA5C0F08BF0020704710B5A0
:10540000FFF709FF40DFF63E81F000407047303182
:1054100032333435363738394142434445464030DB
:10542000580030313233343536373839616263648D
:1054300065664030780004000008000000000000AD
:1054400000020001000010003F00000064656300DE
:105450006964000072756E74696D650068656C70D2
:10546000000000006C69737400000000686578003B
:10547000766F6964205365745F5049445F416E677D
:105480006C6528696E74204B702C696E74204B64B7
:1054900029000000766F69642077726974655F6126
:1054A0006464722875333220616464722C753332FF
:1054B0002076616C290000007533322072656164CA
:1054C0005F616464722875333220616464722900FC
:1054D000766F69642064656C61795F6D73287531DE
:1054E00036206E6D73290000766F69642064656CE8
:1054F00061795F757328753332206E7573290000EA
:10550000766F6964205365745F5049445F4C6F63E4
:105510006174696F6E28696E74204B702C696E74AB
:10552000204B64293B000000485500080000002083
:10553000F80100006C010008D4550008F8010020B3
:1055400028070000C8010008D184A24A04680901A4
:10555000020304060708090C691005240204060862
:1055600003121C0C32467A606259683143102713CB
:10557000AA432480224523D0400320A0431348544B
:105580001B085C041A64041A50041A6C041A4C04B4
:105590001A5404138F3B1B08B8081A95081A94086C
:1055A000130B241B08D00813C3231B08E80813A1FE
:1055B0002D1B0870081ABD081112552308D4142099
:1055C000DF36140803371B08AD041A17384A069B48
:0455D00001D90000FD
:0400000508000131BD
:00000001FF
